S01D00004253425F416461707465725F426F6172645F4350502E7372656387
S113000073C000009FC000009DC000009BC00000A2
S113001099C0000097C0000095C0000093C0000084
S113002091C000008FC000008DC000008BC0000094
S113003089C0000087C0000085C0000083C00000A4
S113004081C000007FC000007DC000007BC00000B4
S113005079C00000F3C6000075C0000073C0000042
S113006071C000006FC000006DC000006BC00000D4
S113007069C0000067C0000065C0000063C00000E4
S113008061C000005FC000005DC000005BC00000F4
S113009059C0000057C0000055C0000053C0000004
S11300A051C000004FC000004DC000004BC0000014
S11300B049C0000047C0000045C0000043C0000024
S11300C041C000003FC000003DC000003BC0000034
S11300D039C0000037C0000035C0000033C0000044
S11300E031C0000010016C0711241FBECFEFD1E214
S11300F0DEBFCDBF00E00CBF12E0A0E0B2E0E0EF55
S1130100FFE000E00BBF02C007900D92A03AB107D8
S1130110D9F723E0A0EAB2E001C01D92A431B207EE
S1130120E1F710E0C4E7D0E000E005C02197010941
S1130130802FFE0120D7C237D10780E00807B1F72E
S113014075D054C75DCF8F92AF92CF92EF920F9339
S1130150019719F56F3F7F4F01F587E78F9386E786
S11301608F9385E78F930F2EF4E78F2EF02D0F2EAC
S1130170F3E7AF2EF02D0F2EF2E7CF2EF02D0F2E3A
S1130180F1E7EF2EF02D00E726E444E161E680EA92
S113019092E0AED20F900F900F900F91EF90CF900E
S11301A0AF908F90089561E087E148D260E087E1E5
S11301B072D240E855E260E070E08DEA92E06CD3E0
S11301C02FEF89E698E1215080409040E1F700C08C
S11301D0000060E172E08DEA92E0F6D38BEB92E0EE
S11301E056D628E438EE41E050E060E080E092E04A
S11301F025D061E080E092E0C2D06AE080E092E045
S1130200E3D042E060E180EA92E020D32FEF81EE78
S113021094E0215080409040E1F700C00000089530
S11302206FEF7FEF81E090E08ECF0895BCDF8BEB22
S113023092E02DD68BEB92E0B5D5FCCF8F929F92B6
S1130240AF92BF92CF92DF92EF92FF921F93CF9320
S1130250DF93CDB7DEB72E970FB6F894DEBF0FBE8F
S1130260CDBF6C0149015A01FC01618380818A3050
S1130270F1F42035334C4105510540F40F2EF0E5DF
S11302808F2EF3EC9F2EA12CB12CF02D81E4881637
S11302908DE0980683E0A806B10448F00F2EF0E440
S11302A08F2EFDE09F2EF3E0AF2EB12CF02D8EE0CB
S11302B0E2E0F2E0DE01119601900D928A95E1F7F9
S11302C010E0173028F5E12EF12CF701EE0FFF1F97
S11302D081E090E08C0F9D1FE80FF91F218130E031
S11302E040E050E060E074E284EF90E00ED68216C5
S11302F09306A406B50650F0EE0CFF1CE1E0F0E016
S1130300EC0FFD1FEE0DFF1D208103C01F5FD9CF31
S113031027E0EAE7F0E080E880839081987F90838B
S11303208081822B808380E480937C00F60181812C
S1130330813071F4EAE7F0E0808180628083ABE78A
S1130340B0E08C91887F8C9380818064808305C029
S1130350EAE7F0E080818F7D80832E960FB6F894D3
S1130360DEBF0FBECDBFDF91CF911F91FF90EF9005
S1130370DF90CF90BF90AF909F908F900895ECE75F
S1130380F0E080818F738083613031F0E0F062307F
S113039049F0633069F012C0ECE7F0E080818064DA
S11303A080830895ECE7F0E08081806C8083089579
S11303B0ECE7F0E08081806480830895ECE7F0E06E
S11303C08081806480830895683008F468E06B302D
S11303D008F06AE0FC0160830895FC0181818111C9
S11303E032C0603198F5ABE7B0E08C91877F8C9395
S11303F0ACE7B0E08C91807F962F9F70892B8C9313
S1130400683028F0ABE7B0E08C9188608C93AAE761
S1130410B0E08C9180648C9390917A0096FDFCCF2F
S1130420209178003091790040814A3091F08AE03F
S113043090E0841B9109A90102C0569547958A95BD
S1130440E2F7CA01089580E090E0089580E090E02A
S11304500895C90108957F928F929F92AF92BF929F
S1130460CF92DF92EF92FF920F931F93CF93DF937C
S11304708C019FEF960F983048F54115510531F1E5
S11304805A01762ED0E0D03108F5C0E0C12CD12C31
S11304907601C71548F46D2FC8019FDFC80ED91E19
S11304A0E11CF11CCF5FF5CF8D2E912C880C991C8B
S11304B08A0C9B1C272D30E040E050E0C701B601B8
S11304C024D5F40131832083DF5FDDCFDF91CF9129
S11304D01F910F91FF90EF90DF90CF90BF90AF905E
S11304E09F908F907F900895883070F198EF980FC7
S11304F0983068F190EF980F983060F190EE980F73
S1130500983058F190ED980F983050F190EC980F86
S1130510983048F190EB980F983040F190EA980F9A
S1130520963038F190E9980F983030F190E8980FB0
S1130530983028F190E7980F983020F1805A88304D
S113054020F58AE091E008958AE290E0089587E238
S113055090E0089584E290E0089587E290E00895A1
S11305608AE290E008958DE290E0089580E390E0BF
S1130570089583E390E0089581E091E0089584E094
S113058091E0089587E091E0089580E090E0089577
S1130590883070F198EF980F983068F190EF980FC9
S11305A0983060F190EE980F983058F190ED980FD4
S11305B0983050F190EC980F983048F190EB980FE8
S11305C0983040F190EA980F963038F190E9980FFE
S11305D0983030F190E8980F983028F190E7980F10
S11305E0983020F1805A883020F58BE091E008950E
S11305F08BE290E0089588E290E0089585E290E02F
S1130600089588E290E008958BE290E008958EE2E8
S113061090E0089581E390E0089584E390E00895E4
S113062082E091E0089585E091E0089588E091E00A
S1130630089580E090E00895877008950F931F93C4
S1130640CF93DF93182F062F4FDFEC01892BF1F0A6
S1130650812FF2DF013069F4488121E030E0B901F3
S113066002C0660F771F8A95E2F7CB01842B88833B
S11306700DC0488121E030E0B90102C0660F771F48
S11306808A95E2F7CB01809584238883DF91CF910B
S11306901F910F9108950F931F93CF93DF93182FFA
S11306A0062F76DFEC01892BF1F0812FC5DF0130B5
S11306B069F4488121E030E0B90102C0660F771F78
S11306C08A95E2F7CB01842B88830DC0488121E011
S11306D030E0B90102C0660F771F8A95E2F7CB01BB
S11306E0809584238883DF91CF911F910F91089582
S11306F08F92AF92CF92EF920F93CF93DF93CDB7B8
S1130700DEB7FC016083418322831386148603834E
S1130710E482C582A68287828B8580878C858187C7
S11307208D858287DF91CF910F91EF90CF90AF901D
S11307308F900895CF93DF93EC0161E08A81ABDF62
S1130740000060E08A81A7DF0000DF91CF91089567
S11307500F931F93CF93DF938C01D62F642FFC014B
S1130760808199DFF80181818F3F11F060E093DF90
S1130770C0E0C83080F46D2F70E00C2E02C0759577
S113078067950A94E2F76170F801EC0FF11D83811B
S113079082DFCF5FEECFC801CDDFF0E1FA95F1F74C
S11307A000C0DF91CF911F910F91089540E0D0CF09
S11307B00895DC011C969C911C97933018F0E5E396
S11307C0F2E002C0E3E3F2E0491710F04FEF490F03
S11307D0E40FF11D9081690F6068CD01E7CF0895A2
S11307E041E0B6CF08950F931F93CF93DF938C010D
S11307F0EB016881662321F02196C801F1DFF9CF6E
S1130800DF91CF911F910F9108950F931F93CF9371
S11308108C0161E0FC01808111DF61E0F8018281DB
S11308200DDFF80181818F3F11F061E007DFC0E047
S1130830C83040F4F801EC0FF11D61E08381FEDE65
S1130840CF5FF6CFCF911F910F910895CF93DF9390
S1130850EC016B874C87D9DF83ED90E30197F1F7C7
S113086000C000008C85823010F068E301C060E3B2
S1130870CE019CDF6CE0CE0199DF61E0CE0196DF12
S113088066E0CE0193DF83EF91E00197F1F700C0BA
S11308900000DF91CF910895CF93DF93EC01DB014A
S11308A0CA01880F991FAA1FBB1F880F991FAA1F6F
S11308B0BB1F9C01AD01220F331F441F551F220F84
S11308C0331F441F551F60E074E284EF90E01DD392
S11308D02150310982E0C03BD80759F43093C50058
S11308E02093C40088E18093C10086E08093C20015
S11308F02BC082E0CF3AD80759F43093CD0020932F
S1130900CC0088E18093C90086E08093CA001CC0B3
S113091082E0CE3AD80759F43093D5002093D4001E
S113092088E18093D10086E08093D2000DC0CD5A37
S1130930D24051F4309335012093340188E18093FF
S1130940310186E080933201DF91CF91089522E056
S1130950803B920739F48091C00085FFFCCF6093FF
S1130960C600089522E08F3A920739F48091C800B6
S113097085FFFCCF6093CE00089522E08E3A920763
S113098039F48091D00085FFFCCF6093D6000895A0
S11309908D5A924031F48091300185FFFCCF6093F1
S11309A0360108950F931F93CF93DF938C01EB01CE
S11309B06881662321F02196C801C9DFF9CFDF9150
S11309C0CF911F910F910895CF93DF93EC01EADF4C
S11309D06DE0CE01BCDF6AE0CE01B9DFDF91CF91DB
S11309E008950F931F93CF93DF93CDB7DEB760972E
S11309F00FB6F894DEBF0FBECDBF8C01CB014AE029
S1130A00BE016F5F7F4FBFD2BE016F5F7F4FC801D2
S1130A10C9DF60960FB6F894DEBF0FBECDBFDF917D
S1130A20CF911F910F910895CF93DF93EC01D9DFFC
S1130A306DE0CE018CDF6AE0CE0189DFDF91CF91DA
S1130A4008958091B602882319F0853040F404C0DB
S1130A5060E087E120DE03C061E087E11CDE809175
S1130A60B60290E0019665E070E03CD28093B60255
S1130A7008958091B5028F5F8093B50269E372E0B7
S1130A808DEA92E08FDF6091B50270E08DEA92E02A
S1130A90CBCF0895CF93DF93CDB7DEB72B970FB6A7
S1130AA0F894DEBF0FBECDBF8091B1029091B20227
S1130AB0A091B302B091B4020196A11DB11D80931F
S1130AC0B1029093B202A093B302B093B40240E097
S1130AD060E080EA92E06DDE6BE472E080EA92E02E
S1130AE082DE4AE0BE016F5F7F4F8091B102909138
S1130AF0B20249D2BE016F5F7F4F80EA92E073DE9B
S1130B002B960FB6F894DEBF0FBECDBFDF91CF9109
S1130B100895FF920F931F93CF93DF93CDB7DEB762
S1130B20A0970FB6F894DEBF0FBECDBFAE014F5FE6
S1130B305F4F68E080E092E08EDC67E572E08DEA6A
S1130B4092E042DF6BE772E08DEA92E03DDFF12C48
S1130B5087E08F1520F169E972E08DEA92E022DFE7
S1130B600F2D10E0B8018DEA92E03BDF6BE972E0F3
S1130B708DEA92E017DF000F111FE1E0F0E0EC0FC7
S1130B80FD1FE00FF11F608171818DEA92E029DF82
S1130B906DE972E08DEA92E005DFF394D9CF6EE956
S1130BA072E08DEA92E010DF6894FF24F3F88FE09E
S1130BB08F1520F169E972E08DEA92E0F3DE0F2DE2
S1130BC010E0B8018DEA92E00CDF6BE972E08DEA87
S1130BD092E0E8DE000F111FE1E0F0E0EC0FFD1FF2
S1130BE0E00FF11F608171818DEA92E0FADE6DE918
S1130BF072E08DEA92E0D6DEF394D9CF6EE972E02A
S1130C008DEA92E0E1DE6BE772E08DEA92E0DCDEF1
S1130C10A0960FB6F894DEBF0FBECDBFDF91CF9183
S1130C201F910F91FF900895019729F46F3F7F4F13
S1130C3011F410921303089582E084BD83E085BD0E
S1130C4089EF87BDEEE6F0E08081826080830895BD
S1130C5078940895CF93DF93DC016115710509F44D
S1130C6042C04A3008F03FC090E09830E8F4C92F01
S1130C70D0E08BE08C9FF0018D9FF00D1124EA0FE2
S1130C80FB1F8085882371F08BE08C9FF0018D9F82
S1130C90F00D1124EA0FFB1F0190F081E02D6E1777
S1130CA07F0709F19F5FE1CF90E09830E0F4C92F0E
S1130CB0D0E08BE08C9FF0018D9FF00D1124EA0FA2
S1130CC0FB1F808581110DC071836083428334834F
S1130CD0238316821582178281E08087118612860B
S1130CE002C09F5FE2CFDF91CF910895BC01809154
S1130CF0B7029091B802A091B902B091BA020196DC
S1130D00A11DB11D8093B7029093B802A093B902BC
S1130D10B093BA0290E0983008F043C0292F30E035
S1130D208BE0829FF001839FF00D1124E60FF71FE3
S1130D3080858823A1F18BE0829FF001839FF00DD1
S1130D401124E60FF71F458156814F5F5F4F56838D
S1130D5045830380F481E02D4E175F0700F1829FE5
S1130D60F001839FF00D1124E60FF71F878188237C
S1130D7051F08BE0829FF001839FF00D1124E60F68
S1130D80F71F81E081878BE0829FF001839FF00D44
S1130D901124E60FF71F1682158281E087839F5F77
S1130DA0BACF0895CF92DF92EF92FF920F931F93E1
S1130DB0CF93DF937C01D0E0DA30B8F5C0E0C830DF
S1130DC090F50C2F10E08BE0809FF001819FF00DD7
S1130DD01124EE0DFF1D8085882319F18BE0809F7F
S1130DE0F001819FF00D1124EE0DFF1D87818823F2
S1130DF0C1F08BE0809FF001819FF00D1124EE0D76
S1130E00FF1D8281D8130DC06F01178211860190D6
S1130E10F081E02D1995F6018285882311F0F60101
S1130E201086CF5FCCCFDF5FC7CFDF91CF911F910B
S1130E300F91FF90EF90DF90CF9008951F920F9243
S1130E400FB60F9211240BB60F922F933F934F932B
S1130E505F936F937F938F939F93AF93BF93EF931E
S1130E60FF938BEB92E042DFFF91EF91BF91AF9143
S1130E709F918F917F916F915F914F913F912F91AE
S1130E800F900BBE0F900FBE0F901F901895CF932D
S1130E90DF93EC01D1DE26E930E042E061E275E067
S1130EA0CE01D8DE28EE33E041E069E375E0CE01FF
S1130EB0D1DE28EE33E043E06AE475E0CE01CADE19
S1130EC028EE33E041E069E875E0CE01C3DECE01EF
S1130ED0BFDEDF91CF9108956FEF7FEF81E090E067
S1130EE0A3CE089597FB072E16F4009406D077FD41
S1130EF008D02DD007FC05D03EF4909581959F4FE6
S1130F000895709561957F4F0895A1E21A2EAA1B4A
S1130F10BB1BFD010DC0AA1FBB1FEE1FFF1FA217A5
S1130F20B307E407F50720F0A21BB30BE40BF50BA2
S1130F30661F771F881F991F1A9469F7609570952B
S1130F40809590959B01AC01BD01CF010895AA1B2A
S1130F50BB1B51E107C0AA1FBB1FA617B70710F0A0
S1130F60A61BB70B881F991F5A95A9F780959095D2
S1130F70BC01CD010895EE0FFF1F881F8BBF0790A2
S1130F80F691E02D1994BB274A3031F4992322F4C9
S1130F90BDE2909581959F4F01C0BB27FB0155276A
S1130FA0AA27880F991FAA1FA41710F0A41B8395C2
S1130FB05051B9F7A05DAA3308F0A95DA193009739
S1130FC079F7B111B1931192CB0100C0DC01FC019E
S1130FD0672F71917723E1F7329704C07C916D9369
S1130FE070836291AE17BF07C8F30895F894FFCFDA
S1130FF00A000102020403080410052006400780C9
S11310004253425F416461707465725F50616C74F5
S1131010696E6520736167742048616C6C6F2E2E55
S11310202E2100004000401454207C20756172740D
S1131030436F756E746572203D20004C4344205408
S1131040657374202D2000414443204368616E6E13
S1131050656C2052656164696E677320284F7665FC
S11310607273616D706C6564293A002D2D2D2D2DE0
S11310702D2D2D2D2D2D2D2D2D2D2D2D2D2D2D2D9C
S11310802D2D2D2D2D2D2D2D0041003D000900006D
S9030000FC
